:0300000002004CAF
:100008000000E2FBEAF2802C0000E0FBEAF080242A
:10001800E6B50202EBF62200E2B50202EBF222009C
:10002800E0B50202EBF02230F6E0A88220F5D3EA30
:10003800C6F582228B822230F6E6A88220F5D98086
:01004800CFE8
:0300A5000200490D
:030049000200A80A
:1000A80090002175F0401207B01202A71202D8AFD3
:1000B80082758200C007120317AD82AE8375820174
:1000C800C006C005120317858211858312D005D09A
:1000D80006D0078D0F8E108F1390002175F04012F7
:1000E80008C5852B82120364853782120370852C1C
:1000F8008212037C853882120388120394900014BC
:100108001202B680A7748F558E4430F58E227586FC
:10011800862274F855AA4405F5AA22AF82BF013099
:10012800E51560168514F005F07401800225E0D508
:10013800F0FBFEF452B3EE42B4228514F005F074DD
:1001480001800225E0D5F0FBFE42B3EEF452B42262
:10015800BF022FE51560168514F005F074018002C2
:1001680025E0D5F0FBFFF452B5EF42B6228514F036
:1001780005F07401800225E0D5F0FBFF42B5EFF4ED
:1001880052B622AF82BF0127E51560118514F0052C
:10019800F07401800225E0D5F0FB4290228514F02E
:1001A80005F07401800225E0D5F0FBF4529022BFDF
:1001B8000226E51560118514F005F074018002250A
:1001C800E0D5F0FB42A0228514F005F0740180020E
:1001D80025E0D5F0FBF452A022AF82BF01138514AD
:1001E800F005F0E5908002C313D5F0FB5401F582C9
:1001F80022BF02138514F005F0E5A08002C313D5D1
:10020800F0FB5401F58222758200227514007515E1
:10021800007582011201237514017515007582019C
:1002280012012375140275150075820112012375D8
:1002380014007515017582021201237514017515D4
:100248000175820212012375140275150175820267
:1002580012012375140375150175820212012375A5
:10026800140075150075820212018B75140175153D
:100278000075820212018B751402751500758202D1
:1002880012018B75140375150075820202018B75B6
:10029800E90075EB0075EA0A75E80175CE032212CC
:1002A800010D12021312011612011A020297AE82F0
:1002B800AF838E048F051EBEFF011FEC4D60107CBE
:1002C800407D06001CBCFF011DEC4D70F680E3224A
:1002D8007F008F14758201C0071201E1E582D00703
:1002E80070027F01751401758201C0071201E1E5F2
:1002F80082D0077003430702751402758201C00794
:100308001201E1E582D00770034307048F8222AF10
:1003180082E5E854F0FE740F5F4E4404F5E87ED0A1
:100328007F07E5E820E50BEE4F60071EBEFF011FC3
:1003380080F0EE4F700712039890000022AEEDE4B3
:10034800CEC4CE6ECE54F0CE6EFFACEC53040F7D0F
:1003580000EE4204EF42058C828D8322858215755A
:10036800140075820202018B85821575140175824D
:100378000202018B85821575140275820202018BB7
:1003880085821575140375820202018B43AA8022A7
:100398007582001203647582001203707582001260
:1003A800037C75820012038880FEAE82AF838E04C0
:1003B8008F05C3EC943DED9400500475820222C36E
:1003C80074E39C74029D500475820322EE4F7009F9
:1003D800C3EC94EBED940150047582002275820100
:1003E80022AE82AF83AB14AC15AD168B828C838D95
:1003F800F0120990F9A3120990FAEEC399FEEF9A48
:10040800C423CEC423541F6ECE541FCE6ECE30E408
:100418000244E0FFEE29F9EF3AFA8B828C838DF0E3
:10042800E9120975A3EA0209758582148583158581
:10043800F01674022514FAE43515FBAC168A828B83
:10044800838CF0120990FC74032514F9E43515FA2D
:10045800AB1689828A838BF0120990F8ECB50030CC
:1004680074042514F517E43515F51885161985173C
:10047800828518838519F0120990F8B80400503065
:10048800088517828518838519F0E8120975802078
:1004980089828A838BF0EC12097574042514F8E4B8
:1004A8003515FCAF1688828C838FF074011209759C
:1004B80074042514FDE43515FEAF168D828E838FE6
:1004C800F0120990FDBD0400401D74052514FDE4DB
:1004D8003515FEAF1689828A838BF01209908D82BA
:1004E8008E838FF002097522AD82AE83AFF074055A
:1004F8002DFAE43EFB8F048A828B838CF0120990DC
:10050800FCBC021474062DF9E43EFA8F0389828A32
:10051800838BF07401020975BC031474062DFAE488
:100528003EFB8F048A828B838CF0740202097574F7
:10053800062DFDE43EFE8D828E838FF0E402097560
:10054800AD82AE83AFF074062DFAE43EFB8F048AC9
:10055800828B838CF01209906001228D038E028FAA
:10056800048B828A838CF0120990FBA3120990FCF9
:100578004B601474072DF8E43EF98F028882898352
:100588008AF07401020975C3EB94EBEC94015011E5
:1005980074072DFDE43EFE8D828E838FF0E4020900
:1005A8007522AF828F06E514600BEF60047F008030
:1005B800027F018F068E8222AD82AE83AFF0740671
:1005C8002DFAE43EFB8F048A828B838CF01209900B
:1005D800FCBC01067A197B00800DBC02067A057BFB
:1005E8000080047582002274082DFDE43EFE8D8291
:1005F8008E838FF0120990FDA3120990FE8A148B46
:10060800158D828E8312094CAE82530601E4FFBE1B
:100618000004BF000104F5822285820C85830D85C4
:10062800F00E850C14850D15850E16850882850932
:10063800831203E97402250CFAE4350DFBAC0EA80D
:100648000CA90DAF0E888289838FF0120990F8A348
:10065800120990F988828983C004C003C00212037A
:10066800B2AF82D002D003D0048A828B838CF0EFA1
:10067800120975850C82850D83850EF0120431E50B
:100688000B60177406250CFDE4350DFEAF0E8D8248
:100698008E838FF0E4120975800C850C82850D839A
:1006A800850EF01204F0850C82850D83850EF012FC
:1006B80005487406250CFDE4350DFEAF0E8D828EBF
:1006C800838FF01209906072740A250CFDE4350DD1
:1006D800FEAF0E8D828E838FF0E4120975740825A3
:1006E8000CFDE4350DFEAF0E8D828E838FF012095E
:1006F80090FBA3120990FC0BBB00010C8D828E832A
:100708008FF0EB120975A3EC120975740B250CFD1B
:10071800E4350DFEAF0E850C82850D83850EF0C085
:1007280007C006C0051205C0AC82D005D006D007A8
:100738008D828E838FF0EC020975740B250CFDE415
:10074800350DFEAF0E8D828E838FF0E4120975741D
:1007580008250CFDE4350DFEAF0E8D828E838FF0DB
:10076800E4120975A3120975740A250CFDE4350D08
:10077800FEAF0E7407250CFAE4350DFBAC0E8A8229
:100788008B838CF0120990FA850A148A82C007C0FC
:1007980006C0051205AAAC82D005D006D0078D8206
:1007A8008E838FF0EC02097585821485831585F098
:1007B80016AA14AB15AC16751700E51775F00CA43E
:1007C800F82AFDE43BFE8C078D828E838FF0E412BD
:1007D8000975A3120975E82514F8E43515FFAE1656
:1007E800C002C003C004740228F9E43FFC8E0589E6
:1007F800828C838DF07401120975740328FBE43F21
:10080800FC8E058B828C838DF0740112097574053A
:1008180028FBE43FFC8E058B828C838DF0740112DB
:100828000975740428FBE43FFC8E058B828C838D4C
:10083800F0E4120975740628FBE43FFC8E058B82F0
:100848008C838DF0E4120975740728FBE43FFC8E55
:10085800058B828C838DF0E4120975740828FBE4FB
:100868003FFC8E058B828C838DF0E4120975A312F0
:100878000975740A28FBE43FFC8E058B828C838DF6
:10088800F0E4120975740B28F8E43FFF88828F831F
:100898008EF0E41209750517C3E5179402D004D049
:1008A80003D00250030207C274182514FDE435155D
:1008B800FEAF168D828E838FF0E4020975AD82AE8D
:1008C80083AFF0AC1374045CB40100B39200E4335A
:1008D800FB74015CB40100B39200E433F50A5304DD
:1008E80002ECB40100B39200E433FC74182DF8E470
:1008F8003EF98F02888289838AF0E5131209758D83
:10090800008E018F02850F088510098B0B8882895C
:10091800838AF0C007C006C005C004C003120621C0
:10092800D003D004D005D006D007740C2DFDE43ECA
:10093800FE8511088512098C0A8B0B8D828E838F98
:10094800F00206217A10E4FBFCE58225E0F582E559
:100958008333F583EB33FBEC33FCEB9514F5F0ECC8
:0D09680095154006FCABF0438201DADD225C
:06007B00E478FFF6D8FD59
:100059007900E94400601B7A009009B0780175A025
:1000690000E493F2A308B8000205A0D9F4DAF27506
:02007900A0FFE6
:1009750020F71130F6138883A88220F509F6A8839D
:0B0985007583002280FEF280F5F02256
:100081007800E84400600A790175A000E4F309D81A
:10009100FC7800E84400600C7900900001E4F0A3D2
:0400A100D8FCD9FAB4
:0D004C007581391209ACE58260030200499C
:1009900020F71430F6148883A88220F507E6A88390
:1009A00075830022E280F7E49322E0227582002220
:00000001FF
